:020000040000FA
:0400000080311C2807
:100008007E1480314E01101C0A280B281A28101063
:10001800FE3044018D00CC308C0001304001B40723
:100028000030B53D0030B63D0030B73D7E100900C8
:1000380080311E288431B2248031C6008431B32433
:100048008031C7008431B4248031C8008431B5249C
:100058008031C90020308400003085001D30843193
:10006800A02480317E10400180313A288431202438
:10007800803184319924803111307D01C6001630D9
:100088007E01A10010307D01C50015307E01A00061
:1000980084318924803100304001C0000130BF0024
:1000A8008630BE00A030BD008331812380314001FD
:1000B8000E1E5F2860286C288E1D632864286C2813
:1000C8008331D62380314001C5004508BC009B28F8
:1000D8000E1E6F2870287C288E19732874287C2897
:1000E8008331AF2380314001C5004508BC009B28FF
:1000F8000E1A7F2880288C288E19832884288C281B
:1001080084317F2480314001C5004508BC009B280C
:100118000E1A8F2890289B288E1D932894289B2898
:100128008331FB2380314001C5004508BC004908E4
:10013800C5004508F100083084315524803140015C
:100148004708C5004508F10007308431552480313F
:1001580040010E1DB028B128FD283A08031DB52816
:10016800B628C52884317524803173084001B3004E
:100178007208B2007108B1007008B000BA01BA0A7A
:1001880017293A03031DC928CA2817293308F30079
:100198003208F2003108F1003008F00084313F24C1
:1001A80080317308031DE4287208031DE4287108D0
:1001B800031DE42804307002031CE328E4281729EF
:1001C80002304001C5004508BA004908031DED2862
:1001D800EE28FC283B08031DF228F328FC283C08DD
:1001E800C5004508F10000308431552480311729B5
:1001F800172902303A06031D022903291529470841
:10020800031D0729082915293B08031D0C290D2959
:1002180015293C08C5004508F100003084315524F3
:1002280080314001BA0140018C1A1B291C29C029C0
:10023800C22984317524803173084001AF007208E7
:10024800AE007108AD007008AC00B901B90ACD293B
:100258002F08F3002E08F2002D08F1002C08F000FA
:1002680084313F2480317308031D46297208031D19
:1002780046297108031D462904307002031C4529CC
:100288004629CD2984317524803173084001AB009B
:100298007208AA007108A9007008A8000230C500F9
:1002A8004508B90002303A06031D5B295C296C2910
:1002B8001F304702031861296229CD293B08031D15
:1002C80066296729CD290130C5004508C707CD290A
:1002D8001F304902031871297229CD293B08031DD3
:1002E80076297729CD290130C5004508C907CD29C8
:1002F8002B08F3002A08F2002908F1002808F0006A
:1003080084313F2480317308031D96297208031D28
:1003180096297108031D962914307002031C95292B
:100328009629CD2984317524803173084001AB00AA
:100338007208AA007108A9007008A80002303A06DD
:10034800031DA729A829B4291F3047020318AD297E
:10035800AE29CD293B08031DB229B329CD29672928
:100368001F3049020318B929BA29CD293B08031DB2
:10037800BE29BF29CD297729B901CD293908003AE5
:1003880003191D29013A03192C29033A03197C2959
:10039800C02940010C1AD129D2296E2A702A843129
:1003A8007524803173084001A7007208A6007108FF
:1003B800A5007008A400B801B80A7B2A2708F30032
:1003C8002608F2002508F1002408F00084313F24B3
:1003D80080317308031DFC297208031DFC2971086C
:1003E800031DFC2904307002031CFB29FC297B2A0D
:1003F80084317524803173084001A3007208A2007B
:100408007108A1007008A0000230C5004508B800B6
:1004180002303A06031D112A122A1F2A4708031917
:10042800162A172A7B2A3B08031D1B2A1C2A7B2A0B
:100438000130C7027B2A49080319232A242A7B2A68
:100448003B08031D282A292A7B2A0130C9027B2A56
:100458002308F3002208F2002108F1002008F00028
:1004680084313F2480317308031D462A7208031D16
:10047800462A7108031D462A14307002031C452AB7
:10048800462A7B2A84317524803173084001A300F1
:100498007208A2007108A1007008A00002303A0694
:1004A800031D572A582A632A470803195C2A5D2A1C
:1004B8007B2A3B08031D612A622A7B2A1C2A4908D9
:1004C8000319672A682A7B2A3B08031D6C2A6D2AB0
:1004D8007B2A292AB8017B2A3808003A0319D3292C
:1004E800013A0319E229033A03192C2A6E2A023029
:1004F80040013906031D812A822AB42A02303806AF
:10050800031D872A882AB42AA62A3C080438C5006D
:100518004508F10000308431552480314001BB0189
:10052800BB0AC42A3C08C5004508F10000308431E4
:100538005524803103304001C5004508BB00C42A5A
:10054800BB01C42A3B08003A0319892A013A031956
:10055800C42A033A0319962A013A0319C42AA42A79
:100568003B03031DB82AB92ABD2A0230C500450835
:10057800BB0003303B06031DC22AC32AC42AA42A8F
:10058800490848060319C92ACA2AEF2A3B08031D45
:10059800CE2ACF2AEF2A4908C5004508F1000830BD
:1005A80084315524803140014908031DDC2ADD2AA5
:1005B800E72A3C080438C5004508F10000308431BA
:1005C80055248031EF2A3C08C5004508F100003069
:1005D8008431552480314001470846060319F52A1D
:1005E800F62A1B2B3B08031DFA2AFB2A1B2B47085C
:1005F800C5004508F1000730843155248031400199
:100608004708031D082B092B132B3C080438C50089
:100618004508F10000308431552480311B2B3C08FB
:10062800C5004508F100003084315524803140016F
:100638004908C5004508C8004708C5004508C60060
:10064800AC2880311C280030FC000030FB00003052
:10065800FA000030F9007308720471047004031979
:10066800362B372B782BFD01FD0A452B0130F03551
:10067800F10DF20DF30D890B3B2B0130F8007808D2
:10068800FD07F31F482B492B3A2B0130F935FA0D9A
:10069800FB0DFC0D890B4A2B73087702031D5E2B9B
:1006A80072087602031D5E2B71087502031D5E2B0E
:1006B80070087402031C612B622B6B2B7008F40208
:1006C8007108F53B7208F63B7308F73B7914013063
:1006D800F336F20CF10CF00C890B6C2B0130FD0297
:1006E800031D772B782B492B7C08F3007B08F2003D
:1006F8007A08F1007908F0000800283043019000DA
:10070800910140013D08C1003E08C2003F08C300F6
:100718004008C4000230C135C20DC30DC40D890B99
:100728008F2B4408F3004308F2004208F100410807
:10073800F0000130F700E830F6004830F5000030EE
:10074800F4008331272383317008FF3E43018D0075
:1007580080308F0008002930F3007308F100003062
:100768008431552483310230F3007308F1000130DD
:100778008431552483314B30F3007308F100023083
:100788008431552483317030F3007308F10003304D
:10079800843155248331F101043084315524833167
:1007A800293008002930F3007308F1000030843143
:1007B80055248331F101F10A013084315524833104
:1007C8004B30F3007308F100023084315524833133
:1007D8007130F3007308F1000330843155248331FC
:1007E800F10104308431552483312930080029303F
:1007F800F3007308F1000030843155248331F1018E
:10080800F10A0130843155248331F10104308431F7
:10081800552483314430F3007308F10002308431E9
:10082800552483310230F3007308F100033084311A
:100838005524833129300800FF3040019200FF30F1
:1008480094007E01B801CE013030B9001830CF00D5
:10085800CF3044018E050E118E148F130430910091
:10086800FE308D00CC308C004E011A1444010E1459
:100878008B170B170800700840013402F400710848
:10088800353BF5007208363BF6007308373BF70036
:100898007708F3007608F2007508F1007408F00094
:1008A8000800F2008431AC248431FA308431912478
:1008B80084317208843191248431710884319124FF
:1008C80084318431A6248431080043010F196D2C2A
:1008D8006E2C692C11081F39031D732C742C692C7C
:1008E800080040013708F3003608F2003508F10027
:1008F8003408F00008002B30F3007308F1000030D2
:100908008431552484312B30080055307D018F0007
:10091800AA308F0001308F000800F000843169246C
:100928008431700843018C00080055307D018F0028
:10093800AA308F008F010800640080010131890B03
:10094800A12C003484316924843143011115080035
:100958008431692484314301111408000A340A34AB
:040968000A340A340F
:020000040001F9
:0A000E008C3FFE378D07FF1FFF3FF8
:00000001FF
