:020000040000FA
:0400000080311C2807
:100008007E1480314E01101C0A280B281A28101063
:10001800FE3044018D00CC308C0001304001B40723
:100028000030B53D0030B63D0030B73D7E100900C8
:1000380080311E288431BE248031C7008431BF241A
:100048008031C8008431C0248031C9008431C12482
:100058008031CA0020308400003085001D30843192
:10006800AC2480317E10400180313A2884312C2420
:1000780080318431A524803111307D01C6001630CD
:100088007E01A10010307D01C50015307E01A00061
:1000980084319524803100304001C0000130BF0018
:1000A8008630BE00A030BD0083318D2380310330FF
:1000B8004001C6000830C5007730890B6128C50BA0
:1000C8006128C60B612840010E1E6B286C28782811
:1000D8008E1D6F28702878288331E22380314001F3
:1000E800C5004508BC00A7280E1E7B287C28882848
:1000F8008E197F28802888288331BB2380314001CE
:10010800C5004508BC00A7280E1A8B288C289828FB
:100118008E198F289028982884318B2480314001AB
:10012800C5004508BC00A7280E1A9B289C28A728AC
:100138008E1D9F28A028A7288431072480314001DC
:10014800C5004508BC004A08C5004508F10008304C
:1001580084316124803140014808C5004508F10018
:10016800073084316124803140010E1DBC28BD2830
:1001780009293A08031DC128C228D12884318124BD
:10018800803173084001B3007208B2007108B100F1
:100198007008B000BA01BA0A23293A03031DD5280A
:1001A800D62823293308F3003208F2003108F10079
:1001B8003008F00084314B2480317308031DF02887
:1001C8007208031DF0287108031DF028043070021E
:1001D800031CEF28F028232902304001C5004508F8
:1001E800BA004A08031DF928FA2808293B08031D04
:1001F800FE28FF2808293C08C5004508F100003002
:100208008431612480312329232902303A06031DD1
:100218000E290F2921294808031D132914292129EA
:100228003B08031D1829192921293C08C500450840
:10023800F10000308431612480314001BA0140016D
:100248008C1A27292829CC29CE2984318124803168
:1002580073084001AF007208AE007108AD00700865
:10026800AC00B901B90AD9292F08F3002E08F20009
:100278002D08F1002C08F00084314B2480317308DC
:10028800031D52297208031D52297108031D5229A2
:1002980004307002031C51295229D9298431812440
:1002A800803173084001AB007208AA007108A900E8
:1002B8007008A8000230C5004508B90002303A06A7
:1002C800031D6729682978291F30480203186D29FA
:1002D8006E29D9293B08031D72297329D9290130B0
:1002E800C5004508C807D9291F304A0203187D29C7
:1002F8007E29D9293B08031D82298329D929013060
:10030800C5004508CA07D9292B08F3002A08F200B6
:100318002908F1002808F00084314B248031730843
:10032800031DA2297208031DA2297108031DA22911
:1003380014307002031CA129A229D92984318124EF
:10034800803173084001AB007208AA007108A90047
:100358007008A80002303A06031DB329B429C02941
:100368001F3048020318B929BA29D9293B08031DA7
:10037800BE29BF29D92973291F304A020318C52964
:10038800C629D9293B08031DCA29CB29D92983297C
:10039800B901D9293908003A03192929013A031959
:1003A8003829033A03198829CC2940010C1ADD2978
:1003B800DE297A2A7C2A843181248031730840011D
:1003C800A7007208A6007108A5007008A400B8016B
:1003D800B80A872A2708F3002608F2002508F10042
:1003E8002408F00084314B2480317308031D082A47
:1003F8007208031D082A7108031D082A04307002B8
:10040800031C072A082A872A84318124803173082B
:100418004001A3007208A2007108A1007008A000A2
:100428000230C5004508B80002303A06031D1D2AEF
:100438001E2A2B2A48080319222A232A872A3B081E
:10044800031D272A282A872A0130C802872A4A0832
:1004580003192F2A302A872A3B08031D342A352AF4
:10046800872A0130CA02872A2308F3002208F200EB
:100478002108F1002008F00084314B2480317308F2
:10048800031D522A7208031D522A7108031D522A9D
:1004980014307002031C512A522A872A843181247D
:1004A800803173084001A3007208A2007108A100FE
:1004B8007008A00002303A06031D632A642A6F2AD6
:1004C80048080319682A692A872A3B08031D6D2AE8
:1004D8006E2A872A282A4A080319732A742A872A1F
:1004E8003B08031D782A792A872A352AB801872AE2
:1004F8003808003A0319DF29013A0319EE29033AAB
:100508000319382A7A2A023040013906031D8D2A38
:100518008E2AC02A02303806031D932A942AC02A3C
:10052800B22A3C080438C5004508F100003084317F
:10053800612480314001BB01BB0AD02A3C08C500B8
:100548004508F100003084316124803103304001D6
:10055800C5004508BB00D02ABB01D02A3B08003A99
:100568000319952A013A0319D02A033A0319A22A32
:10057800013A0319D02AB02A3B03031DC42AC52A0D
:10058800C92A0230C5004508BB0003303B06031DDD
:10059800CE2ACF2AD02AB02A4A0849060319D52AD2
:1005A800D62AFB2A3B08031DDA2ADB2AFB2A4A083B
:1005B800C5004508F10008308431612480314001CC
:1005C8004A08031DE82AE92AF32A3C080438C5002A
:1005D8004508F1000030843161248031FB2A3C0851
:1005E800C5004508F10000308431612480314001A4
:1005F800480847060319012B022B272B3B08031D2C
:10060800062B072B272B4808C5004508F1000730A3
:1006180084316124803140014808031D142B152BB7
:100628001F2B3C080438C5004508F1000030843110
:1006380061248031272B3C08C5004508F1000030B3
:1006480084316124803140014A08C5004508C90049
:100658004808C5004508C700B82880311C28003064
:10066800FC000030FB000030FA000030F90073088D
:100678007204710470040319422B432B842BFD016F
:10068800FD0A512B0130F035F10DF20DF30D890BF8
:10069800472B0130F8007808FD07F31F542B552B22
:1006A800462B0130F935FA0DFB0DFC0D890B562B45
:1006B80073087702031D6A2B72087602031D6A2BE2
:1006C80071087502031D6A2B70087402031C6D2BD8
:1006D8006E2B772B7008F4027108F53B7208F63B15
:1006E8007308F73B79140130F336F20CF10CF00C77
:1006F800890B782B0130FD02031D832B842B552B8E
:100708007C08F3007B08F2007A08F1007908F00011
:100718000800283043019000910140013D08C100C4
:100728003E08C2003F08C3004008C4000230C1357B
:10073800C20DC30DC40D890B9B2B4408F30043085D
:10074800F2004208F1004108F0000130F700E830FB
:10075800F6004830F5000030F4008331332383314C
:100768007008FF3E43018D0080308F00080029305B
:10077800F3007308F10000308431612483310230C2
:10078800F3007308F10001308431612483314B3068
:10079800F3007308F1000230843161248331723030
:1007A800F3007308F1000330843161248331F101CF
:1007B8000430843161248331293008002930F30062
:1007C8007308F1000030843161248331F101F10AAA
:1007D80001308431612483314B30F3007308F10018
:1007E80002308431612483317130F3007308F100E1
:1007F8000330843161248331F10104308431612470
:100808008331293008002930F3007308F1000030E3
:10081800843161248431F101F10A01308431612489
:1008280084314430F3007308F100023084316124CC
:1008380084310230F3007308F100033084316124FD
:100848008431F10104308431612484312930080075
:10085800FF3040019200FF3094007E01B801CE01C4
:100868003030B9001830CF00CF3044018E050E115A
:100878008E148F1304309100FE308D00CC308C0024
:100888004E011A1444010E148B170B170800700838
:1008980040013402F4007108353BF5007208363B1C
:1008A800F6007308373BF7007708F3007608F20084
:1008B8007508F1007408F0000800F2008431B824CB
:1008C8008431FA3084319D248431720884319D2426
:1008D8008431710884319D2484318431B224843177
:1008E800080043010F19792C7A2C752C11081F392F
:1008F800031D7F2C802C752C080040013708F3005D
:100908003608F2003508F1003408F00008002B30F2
:10091800F3007308F10000308431612484312B30F6
:10092800080055307D018F00AA308F0001308F00FC
:100938000800F000843175248431700843018C006C
:10094800080055307D018F00AA308F008F01080004
:10095800640080010131890BAD2C00348431752489
:100968008431430111150800843175248431430111
:0C097800111408000A340A340A340A344E
:020000040001F9
:0A000E008C3F3E378D07FF1FFF3FB8
:00000001FF
