:020000040000FA
:0400000080311C2807
:100008007E1480314E01101C0A280B281A28101063
:10001800FE3044018D00CC308C0001304001B00727
:100028000030B13D0030B23D0030B33D7E100900D4
:1000380080311E288331CC238031C1008331CD2308
:100048008031C200203084000030850018308331B0
:10005800BA2380317E1040018031322883313A231F
:1000680080318331B323803111307D01C6001630D1
:100078007E01A10010307D01C50015307E01A00071
:100088008331A323803100304001BB000130BA0026
:100098008630B900A030B80082319B2280314001FF
:1000A8000E1E5728582864288E1D5B285C28642853
:1000B8008231F02280314001C0004008B700932807
:1000C8000E1E6728682874288E196B286C287428D7
:1000D8008231C92280314001C0004008B70093280E
:1000E8000E1A7728782884288E197B287C2884285B
:1000F8008331992380314001C0004008B70093281C
:100108000E1A8728882893288E1D8B288C289328D8
:100118008331152380314001C0004008B7004208F0
:10012800C0004008F100083083316F23803140015E
:100138004208C0004008F100073083316F23803146
:1001480040018C1AA828A9282529272983318F231B
:10015800803173084001AF007208AE007108AD002D
:100168007008AC00B501B50A32292F08F3002E0833
:10017800F2002D08F1002C08F0008331592380315A
:100188007308031DD3287208031DD3287108031DA3
:10019800D32804307002031CD228D3283229833193
:1001A8008F23803173084001AB007208AA007108E0
:1001B800A9007008A8000230C0004008B5001F3030
:1001C80042020318E828E92832293608031DED28D9
:1001D800EE2832290130C0004008C20732292B0816
:1001E800F3002A08F2002908F1002808F0008331FA
:1001F800592380317308031D0D297208031D0D2929
:100208007108031D0D2914307002031C0C290D29D7
:10021800322983318F23803173084001AB00720883
:10022800AA007108A9007008A8001F30420203182C
:100238001E291F2932293608031D2329242932297A
:10024800EE28B50132293508003A0319AA28013ADF
:100258000319B928033A0319F328252940010C1A70
:1002680036293729AF29B12983318F238031730883
:100278004001A7007208A6007108A5007008A40034
:10028800B401B40ABC292708F3002608F20025089F
:10029800F1002408F0008331592380317308031DCD
:1002A80061297208031D61297108031D6129043041
:1002B8007002031C60296129BC2983318F23803196
:1002C80073084001A3007208A2007108A100700819
:1002D800A0000230C0004008B40042080319752984
:1002E8007629BC293608031D7A297B29BC290130C7
:1002F800C202BC292308F3002208F2002108F100F9
:100308002008F0008331592380317308031D982990
:100318007208031D98297108031D9829143070026A
:10032800031C97299829BC2983318F2380317308AE
:100338004001A3007208A2007108A1007008A00083
:1003480042080319A829A929BC293608031DAD2983
:10035800AE29BC297B29B401BC293408003A031909
:100368003829013A03194729033A03197E29AF2985
:10037800023040013506031DC229C329F529023080
:100388003406031DC829C929F529E729370804387F
:10039800C0004008F100003083316F2380314001F4
:1003A800B601B60A052A3708C0004008F100003037
:1003B80083316F23803103304001C0004008B6000C
:1003C800052AB601052A3608003A0319CA29013A4E
:1003D8000319052A033A0319D729013A0319052AEB
:1003E800E5293603031DF929FA29FE290230C00040
:1003F8004008B60003303606031D032A042A052ADE
:10040800E5294208410603190A2A0B2A392A36081F
:10041800031D0F2A102A392A4208031D142A152AF7
:100428001F2A37080438C0004008F1000030833123
:100438006F238031392A3708C0004008F1000030A6
:1004480083316F23803140014208C0004008F10029
:10045800083083316F23803140014208C0004008D2
:10046800F100073083316F23803140014208C0001A
:100478004008C100A42880311C280030FC0000304E
:10048800FB000030FA000030F900730872047104B0
:1004980070040319502A512A922AFD01FD0A5F2A85
:1004A8000130F035F10DF20DF30D890B552A0130AD
:1004B800F8007808FD07F31F622A632A542A0130DE
:1004C800F935FA0DFB0DFC0D890B642A73087702C8
:1004D800031D782A72087602031D782A71087502AE
:1004E800031D782A70087402031C7B2A7C2A852A3B
:1004F8007008F4027108F53B7208F63B7308F73B85
:1005080079140130F336F20CF10CF00C890B862AC1
:100518000130FD02031D912A922A632A7C08F30008
:100528007B08F2007A08F1007908F000080028300A
:1005380043019000910140013808BC003908BD0012
:100548003A08BE003B08BF000230BC35BD0DBE0DE9
:10055800BF0D890BA92A3F08F3003E08F2003D08A9
:10056800F1003C08F0000130F700E830F6004830B0
:10057800F5000030F4008231412282317008FF3EDC
:1005880043018D0080308F0008002930F300730884
:10059800F100003083316F2382310230F300730899
:1005A800F100013083316F2382314B30F30073083F
:1005B800F100023083316F2382317030F300730809
:1005C800F100033083316F238231F101043083312C
:1005D8006F238231293008002930F3007308F100B5
:1005E800003083316F238231F101F10A0130833108
:1005F8006F2382314B30F3007308F10002308331EE
:100608006F2382317130F3007308F10003308331B6
:100618006F238231F101043083316F238231293015
:1006280008002930F3007308F100003083316F238C
:100638008331F101F10A013083316F238331F101F4
:10064800043083316F2383314430F3007308F100A1
:10065800023083316F2383310230F3007308F100D5
:10066800033083316F23833129300800FF30400184
:100678009200FF3094007E01B801CE013030B900FD
:100688001830CF00CF3044018E050E118E148F1311
:1006980004309100FE308D00CC308C004E011A14CD
:1006A80044010E148B170B17080070084001300224
:1006B800F4007108313BF5007208323BF60073080C
:1006C800333BF7007708F3007608F2007508F1006D
:1006D8007408F0000800F2008331C6238331FA3031
:1006E8008331AB23833172088331AB2383317108A3
:1006F8008331AB2383318331C02383310800430125
:100708000F19872B882B832B11081F39031D8D2B5D
:100718008E2B832B080040013308F3003208F200C7
:100728003108F1003008F00008002B30F30073089E
:10073800F100003083316F2383312B3008005530AE
:100748007D018F00AA308F0001308F000800F00073
:10075800833183238331700843018C0008005530AE
:100768007D018F00AA308F008F010800640080018E
:100778000131890BBB2B003483318323833143013F
:1007880011150800833183238331430111140800B4
:040798000F340F34D7
:020000040001F9
:0A000E008C3FFE378D07FF1FFF3FF8
:00000001FF
