:020000040000FA
:0400000080311C2807
:100008007E1480314E01101C0A280B281A28101063
:10001800FE3044018D00CC308C0001304001B00727
:100028000030B13D0030B23D0030B33D7E100900D4
:1000380080311E2883314B238031C000203084005A
:100048000030850017308331392380317E1040011C
:1000580080312E288231BA22803183313223803197
:1000680011307D01C60016307E01A10010307D01DF
:10007800C50015307E01A000833122238031003075
:100088004001BA000130B9008630B800A030B7008E
:1000980082311E22803140010E1E532854285C28CC
:1000A8008E1D572858285C288231722280317F287B
:1000B8000E1E5F28602868288E196328642868281F
:1000C80082314C2280317F280E1A6B286C287428C4
:1000D8008E196F28702874288331192380317F285E
:1000E8000E1A772878287F288E1D7B287C287F2861
:1000F80082319622803140014008BF003F08F1005C
:1001080008308231EF22803140014008BF003F08AB
:10011800F10007308231EF22803140018C1A952896
:100128009628FE28002983310F2380317308400167
:10013800AF007208AE007108AD007008AC00B501E0
:10014800B50A0B292F08F3002E08F2002D08F1003C
:100158002C08F0008231D92280317308031DC02891
:100168007208031DC0287108031DC02804307002DE
:10017800031CBF28C0280B2983310F238031730843
:100188004001AB007208AA007108A9007008A80015
:100198000230BF003F08B5000130BF003F08C0076C
:1001A800B601B60A0B292B08F3002A08F200290821
:1001B800F1002808F0008231D92280317308031D2C
:1001C800F1287208031DF1287108031DF128143065
:1001D8007002031CF028F1280B2983310F2380318A
:1001E80073084001AB007208AA007108A9007008E2
:1001F800A800D028B5010B293508003A031997281B
:10020800013A0319A628033A0319D728FE28400102
:100218000C1A0F2910297629782983310F23803168
:1002280073084001A7007208A6007108A5007008AD
:10023800A400B401B40A83292708F3002608F200B1
:100248002508F1002408F0008231D9228031730892
:10025800031D3A297208031D3A297108031D3A291A
:1002680004307002031C39293A29832983310F236A
:10027800803173084001A3007208A2007108A10030
:100288007008A0000230BF003F08B4000130C0026F
:10029800B601B60A83292308F3002208F2002108D0
:1002A800F1002008F0008231D92280317308031D43
:1002B80069297208031D69297108031D6929143009
:1002C8007002031C68296929832983310F2380312F
:1002D80073084001A3007208A2007108A100700809
:1002E800A0004A29B40183293408003A03191129C6
:1002F800013A03192029033A03194F2976290230B4
:1003080040013506031D89298A29932902303406BC
:10031800031D8F2990299329C001B601B60A360812
:100328000319972998299128400803199C299D2980
:10033800A329FB304002031CA229A329A429C00138
:1003480020304002031CA929AA29AE291F30BF006A
:100358003F08C0004008BF003F08F1000830823164
:10036800EF22803140014008BF003F08F10007300C
:100378008231EF2280314001B601912880311C285A
:100388000030FC000030FB000030FA000030F900BB
:1003980073087204710470040319D329D429152A27
:1003A800FD01FD0AE2290130F035F10DF20DF30DE2
:1003B800890BD8290130F8007808FD07F31FE529D3
:1003C800E629D7290130F935FA0DFB0DFC0D890B0B
:1003D800E72973087702031DFB2972087602031DBB
:1003E800FB2971087502031DFB2970087402031CA0
:1003F800FE29FF29082A7008F4027108F53B7208E3
:10040800F63B7308F73B79140130F336F20CF10C24
:10041800F00C890B092A0130FD02031D142A152A44
:10042800E6297C08F3007B08F2007A08F1007908D5
:10043800F00008002830430190009101400137087E
:10044800BB003808BC003908BD003A08BE000230BD
:10045800BB35BC0DBD0DBE0D890B2C2A3E08F30023
:100468003D08F2003C08F1003B08F0000130F700BD
:10047800E830F6004830F5000030F4008131C4213E
:1004880082317008FF3E43018D0080308F000800E4
:100498002930F3007308F10000308231EF228231F5
:1004A8000230F3007308F10001308231EF2282310B
:1004B8004B30F3007308F10002308231EF228231B1
:1004C8007030F3007308F10003308231EF2282317B
:1004D800F10104308231EF22823108002930F30023
:1004E8007308F10000308231EF228231F101F10A04
:1004F80001308231EF2282314B30F3007308F10072
:1005080002308231EF2282317130F3007308F1003A
:1005180003308231EF228231F10104308231EF223F
:10052800823108002930F3007308F100003082316D
:10053800EF228231F101F10A01308231EF2282315A
:10054800F10104308231EF2282314430F300730824
:10055800F10002308231EF2282310230F300730859
:10056800F10003308231EF2282310800FF30400170
:100578009200FF3094007E01B801CE013030B900FE
:100588001830CF00CF3044018E050E118E148F1312
:1005980004309100FE308D00CC308C004E011A14CE
:1005A80044010E148B170B17080070084001300225
:1005B800F4007108313BF5007208323BF60073080D
:1005C800333BF7007708F3007608F2007508F1006E
:1005D8007408F0000800F200833145238231FA30B4
:1005E80083312A238231720883312A2382317108A8
:1005F80083312A23823183313F238231080043012A
:100608000F19072B082B032B11081F39031D0D2B5E
:100618000E2B032B080040013308F3003208F200C8
:100628003108F1003008F00008002B30F30073089F
:10063800F10000308231EF228331080055307D010E
:100648008F00AA308F0001308F000800F00083313E
:1006580003238331700843018C00080055307D0165
:100668008F00AA308F008F010800640080010131DB
:10067800890B3A2B0034833103238331430111154D
:1006880008008331032383314301111408000F3418
:020000040001F9
:0A000E008C3FFE378D07FF1FFF3FF8
:00000001FF
